:030000000208985B
:0C089800787FE4F6D8FD75810D0208DFC2
:040994000208000055
:10097900759850758920758780758DF3758BF3D2BD
:06098900ACD2AFD28E22B9
:05098F0012097980FE51
:03002300020800D0
:10080000C0E0C0F0C0D075D000C000C003C004C0BC
:0508100005C006C00751
:10081500AB99AE08AF097C007D03120924ED4C703D
:100825000C8B800509E50970220508801EED640121
:100835004C700C8B900509E50970100508800CEDCE
:1008450064024C7006F508F5098BA0C298750A007C
:10085500750B00750C00750D00050DE50D70020595
:100865000C64F0450C70F2050BE50B7002050A648B
:10087500F0450A70DEA2B7E433F5993099FDC299C7
:10088500D007D006D005D004D003D000D0D0D0F00A
:03089500D0E0327E
:1008A40002098FE493A3F8E493A34003F68001F2D2
:1008B40008DFF48029E493A3F85407240CC8C33355
:1008C400C4540F4420C8834004F456800146F6DF24
:1008D400E4800B0102040810204080900994E47E17
:1008E400019360BCA3FF543F30E509541FFEE49319
:1008F400A360010ECF54C025E060A840B8E493A3E0
:10090400FAE493A3F8E493A3C8C582C8CAC583CA0A
:10091400F0A3C8C582C8CAC583CADFE9DEE780BEC2
:01099800005E
:10092400BC000BBE0029EF8DF084FFADF022E4CCB7
:10093400F875F008EF2FFFEE33FEEC33FCEE9DEC80
:10094400984005FCEE9DFE0FD5F0E9E4CEFD22EDC6
:10095400F8F5F0EE8420D21CFEADF075F008EF2F10
:10096400FFED33FD4007985006D5F0F222C398FD01
:050974000FD5F0EA229E
:00000001FF
